:100000000C9431000C944E000C944E000C944E0055
:100010000C944E000C944E000C944E000C944E0028
:100020000C944E000C944E000C944E000C944E0018
:100030000C944E000C944E000C944E000C944E0008
:100040000C944E000C944E000C944E000C944E00F8
:100050000C944E006B026E027102740277027A02F7
:100060007D0211241FBECFE5D8E0DEBFCDBF10E07A
:10007000A0E6B0E0E4E0F4E102C005900D92A43BFC
:10008000B107D9F720E0A4EBB0E001C01D92A83B76
:10009000B207E1F70E94F0020C94000A0C940000F1
:1000A000FC010FB6F8946091B4007091B500809196
:1000B000B6009091B7000FBE309721F06083718336
:1000C000828393830895CA9B07C081B3806181BBFB
:1000D00082B3806182BB02C0CA9B12BA2FEF80E755
:1000E00092E0215080409040E1F700C00000089568
:1000F0008FB5826A8FBD8EB58A618EBD8FE39CE914
:1001000097BD86BD81B3806381BB08951ABA87E825
:1001100086B980E487B908958770806487B986B10D
:10012000806486B9349BFECF86B1806186B98FE941
:100130009FE00197F1F700C0000084B195B10895E8
:1001400098B39F70282F207F922B98BB98B39E7FE7
:1001500098BB98B3926098BB35E03A95F1F70000F0
:1001600098B39D7F98BBEFE1F3E03197F1F700C0C2
:10017000000028B3F0E18F9FC0011124922F9F70DF
:10018000892B88BB88B3826088BB35E03A95F1F74C
:10019000000088B38D7F88BB8FE39FE10197F1F763
:1001A00000C00000089598B39F70282F207F922BE5
:1001B00098BB98B3916098BB98B3926098BB35E0B8
:1001C0003A95F1F7000098B39D7F98BBEFE1F3E01B
:1001D0003197F1F700C0000028B3F0E18F9FC00114
:1001E0001124922F9F70892B88BB88B3826088BBB3
:1001F00035E03A95F1F7000088B38D7F88BB8FE337
:100200009FE10197F1F700C0000008958FEF87BBD1
:100210002FEF89EF90E0215080409040E1F700C03F
:10022000000082E00E94A00088E20E94A0008EE010
:100230000E94A00086E00E94A00081E00E94A00031
:100240008FE39FE10197F1F700C0000008950F933D
:100250001F93CF93DF938C01C0E0D0E003C00E94D6
:10026000D3002196F801EC0FFD1F80818111F7CF9B
:10027000DF91CF911F910F91089581E00E94A0001E
:100280008FE39FE10197F1F700C0000080E80E9432
:10029000A00008958EEF85BB9C990BC02FEF89EFCE
:1002A00090E0215080409040E1F700C0000087E3DB
:1002B00008959D990BC02FEF89EF90E02150804069
:1002C0009040E1F700C0000088E308959E990BC0BC
:1002D0002FEF89EF90E0215080409040E1F700C07F
:1002E000000089E308958DEF85BB9C990BC02FEF2B
:1002F00089EF90E0215080409040E1F700C000007D
:1003000084E308959D990BC02FEF89EF90E0215071
:1003100080409040E1F700C0000085E308959E9979
:100320000BC02FEF89EF90E0215080409040E1F723
:1003300000C0000086E308958BEF85BB9C990BC03D
:100340002FEF89EF90E0215080409040E1F700C00E
:10035000000081E308959D990BC02FEF89EF90E095
:10036000215080409040E1F700C0000082E30895F2
:100370009E990BC02FEF89EF90E021508040904074
:10038000E1F700C0000083E3089587EF85BB9D99E6
:100390000BC02FEF89EF90E0215080409040E1F7B3
:1003A00000C0000080E30895089591B39F6091BB61
:1003B000813661F486E082BB2FEF80E792E0215026
:1003C00080409040E1F700C000000895823661F45B
:1003D00083E082BB2FEF80E792E021508040904085
:1003E000E1F700C000000895833661F489E082BB24
:1003F0002FEF80E792E0215080409040E1F700C06D
:10040000000008958CE082BB2FEF80E792E021503E
:1004100080409040E1F700C00000089580E28BBB6F
:100420002FEF80E792E0215080409040E1F700C03C
:100430000000089580E48BBB2FEF80E792E021500D
:1004400080409040E1F700C00000089580E38BBB3E
:100450002FEF80E792E0215080409040E1F700C00C
:100460000000089580EC8BBB2FEF80E792E02150D5
:1004700080409040E1F700C00000089580E18BBB10
:100480002FEF80E792E0215080409040E1F700C0DC
:100490000000089588E08BBB2FEF80E792E02150A9
:1004A00080409040E1F700C00000089580E58BBBDC
:1004B0002FEF80E792E0215080409040E1F700C0AC
:1004C00000000895019787309105C8F4865D9F4F1D
:1004D000FC010C9408060E940E0211C00E941A0230
:1004E0000EC00E9426020BC00E94320208C00E9469
:1004F0003E0205C00E944A0202C00E94560280E0ED
:1005000090E0089585B5896685BD81B3806881BB1B
:10051000089589E683BF87B3886087BB089583BD4C
:1005200008958CBF0895EF92FF920F931F93CF937E
:10053000DF93CDB7DEB72A970FB6F894DEBF0FBEB4
:10054000CDBF0E9406010E9486000E943D0180E00E
:100550000E948C00BC01990F880B990B0E94FB0430
:1005600026EF38E24CE950E40E94870520E030E0B5
:1005700040E251E40E9451040E94C304862F972F49
:100580008C011F928FED8F937F936F9384E690E0A1
:100590009F938F93CE0101967C019F938F930E942E
:1005A000A3068AE0F70111928A95E9F70FB6F8944D
:1005B000DEBF0FBECDBF0A3111051CF080E090E018
:1005C00002C081E090E02A960FB6F894DEBF0FBE1D
:1005D000CDBFDF91CF911F910F91FF90EF900895C4
:1005E0008F929F92AF92BF92CF92DF92FF920F9322
:1005F0001F93CF93DF9300D000D01F92CDB7DEB70B
:1006000080E090E00E945000CB010E9473068FE0D2
:1006100084BB80EF85BB0E9406018AE690E00E94C1
:10062000270180EC0E94A000A12CB12C0F2EF3E03A
:10063000CF2ED12CF02D19C00E944A01182F80ED29
:10064000810F8A3090F4812F0E94D300812F90E097
:10065000C0974AE04A9D90014B9D300D11245C01EA
:10066000A20EB31E21E0C21AD1081C141D0424F3EB
:100670000E9406018FE790E00E94270180EC0E9413
:10068000A000812C912C03E010E018C00E944A01C8
:10069000F82E80ED8F0D8A3088F48F2D0E94D300C4
:1006A0008F2D90E0C0974AE0489D9001499D300D04
:1006B00011244C01820E931E0150110910161106CF
:1006C0002CF38FEF90E722E0815090402040E1F73B
:1006D00000C000000E943D0184E990E00E942701D3
:1006E0008FEF90E722E0815090402040E1F700C07A
:1006F00000000E943D01C12CD12C0F2EF1E6FF2EEF
:10070000F02DB7C00E949302019709F0A8C00E9483
:1007100063000E946E06B4016A197B096F5F7F4F08
:100720000E94F4058A0D082F10E04AE0BE016F5FB9
:100730007F4FC8010E947E06CE0101960E942701CC
:100740008EE990E00E94270180EF8ABB0E946E062E
:1007500067E070E00E94F40501960E9462020E9428
:1007600078000E946E066DE770E00E94F4058458E0
:100770009F4F9BBD8ABD8FEF91EE24E0815090404A
:100780002040E1F700C000000E9482020E9489021E
:10079000C80181559109879738F48AEF0E948F022A
:1007A0008AE00E94910212C009571109093011050F
:1007B00038F48AE00E948F028AEF0E94910206C0FC
:1007C0008AE00E948F028AE00E9491028FE39CE9F6
:1007D0000197F1F700C0000088E08ABB8BBB9FEF58
:1007E00020E782E0915020408040E1F700C0000007
:1007F0001BBA81B38FEF81BB92B382BB91E6F91232
:1008000008C08F2D0E94D5010F2EF2E6FF2EF02D8D
:1008100020C022E6F21208C08F2D0E94D5010F2EB3
:10082000F3E6FF2EF02D15C083E6F81208C08F2DD9
:100830000E94D5010F2EF4E6FF2EF02D0AC094E69B
:10084000F91207C08F2D0E94D5010F2EF1E6FF2E61
:10085000F02D0E943D012FEFC21AD20A0AC00E9459
:10086000060183EA90E00E94270182E08ABB8BBBED
:10087000FFCF84E1C816D1040CF444CF80E090E0AF
:100880000F900F900F900F900F90DF91CF911F91CD
:100890000F91FF90DF90CF90BF90AF909F908F907F
:1008A00008950E9465040C944D050E94460558F079
:1008B0000E943F0540F029F45F3F29F00C94360573
:1008C00051110C9481050C943C050E945E0568F35F
:1008D0009923B1F3552391F3951B550BBB27AA27F9
:1008E00062177307840738F09F5F5F4F220F331F33
:1008F000441FAA1FA9F335D00E2E3AF0E0E832D0FB
:1009000091505040E695001CCAF72BD0FE2F29D0FD
:10091000660F771F881FBB1F261737074807AB07CF
:10092000B0E809F0BB0B802DBF01FF2793585F4F44
:100930003AF09E3F510578F00C9436050C948105F1
:100940005F3FE4F3983ED4F3869577956795B79526
:10095000F7959F5FC9F7880F911D9695879597F931
:100960000895E1E0660F771F881FBB1F62177307AA
:100970008407BA0720F0621B730B840BBA0BEE1FBF
:1009800088F7E09508950E94CA046894B1110C9408
:10099000810508950E94660588F09F5798F0B92F49
:1009A0009927B751B0F0E1F0660F771F881F991FA4
:1009B0001AF0BA95C9F714C0B13091F00E948005C1
:1009C000B1E008950C948005672F782F8827B85FD1
:1009D00039F0B93FCCF3869577956795B395D9F7FC
:1009E0003EF490958095709561957F4F8F4F9F4F06
:1009F0000895E89409C097FB3EF490958095709512
:100A000061957F4F8F4F9F4F9923A9F0F92F96E95A
:100A1000BB279395F695879577956795B795F111CF
:100A2000F8CFFAF4BB0F11F460FF1BC06F5F7F4F6C
:100A30008F4F9F4F16C0882311F096E911C077237E
:100A400021F09EE8872F762F05C0662371F096E887
:100A5000862F70E060E02AF09A95660F771F881F56
:100A6000DAF7880F9695879597F9089597F99F6714
:100A700080E870E060E008959FEF80EC0895002426
:100A80000A941616170618060906089500240A94F3
:100A900012161306140605060895092E0394000C79
:100AA00011F4882352F0BB0F40F4BF2B11F460FF08
:100AB00004C06F5F7F4F8F4F9F4F089557FD905831
:100AC000440F551F59F05F3F71F04795880F97FB12
:100AD000991F61F09F3F79F08795089512161306CC
:100AE0001406551FF2CF4695F1DF08C016161706FB
:100AF0001806991FF1CF8695710561050894089530
:100B0000E894BB2766277727CB0197F908950E94C1
:100B10009A050C944D050E943F0538F00E94460549
:100B200020F0952311F00C9436050C943C0511240B
:100B30000C9481050E945E0570F3959FC1F3950F9B
:100B400050E0551F629FF001729FBB27F00DB11D51
:100B5000639FAA27F00DB11DAA1F649F6627B00DE1
:100B6000A11D661F829F2227B00DA11D621F739FCA
:100B7000B00DA11D621F839FA00D611D221F749FD8
:100B80003327A00D611D231F849F600D211D822F1F
:100B9000762F6A2F11249F5750409AF0F1F0882346
:100BA0004AF0EE0FFF1FBB1F661F771F881F915073
:100BB0005040A9F79E3F510580F00C9436050C94E7
:100BC00081055F3FE4F3983ED4F38695779567956A
:100BD000B795F795E7959F5FC1F7FE2B880F911D9D
:100BE0009695879597F9089597FB072E16F400942C
:100BF00007D077FD09D00E940E0607FC05D03EF411
:100C0000909581959F4F0895709561957F4F0895B8
:100C1000EE0FFF1F0590F491E02D0994AA1BBB1B5A
:100C200051E107C0AA1FBB1FA617B70710F0A61BEC
:100C3000B70B881F991F5A95A9F780959095BC010D
:100C4000CD0108958F929F92AF92BF92CF92DF9283
:100C5000EF92FF92CF93DF93EC01688179818A81D3
:100C60009B81611571058105910521F464E279ED9F
:100C70008BE597E02DE133EF41E050E00E946609FB
:100C800049015A019B01AC01A7EAB1E40E94850920
:100C90006B017C01ACEEB4EFA50194010E949309B5
:100CA000DC01CB018C0D9D1DAE1DBF1DB7FF03C028
:100CB0000197A109B04888839983AA83BB839F7752
:100CC000DF91CF91FF90EF90DF90CF90BF90AF90EA
:100CD0009F908F9008950E942206089580E690E0EC
:100CE0000E9422060895A0E0B0E0809360009093F7
:100CF0006100A0936200B09363000895BB274A305F
:100D000031F4992322F4BDE2909581959F4F0C9484
:100D10008A06BB27FB015527AA27880F991FAA1F00
:100D2000A41710F0A41B83955051B9F7A05DAA3306
:100D300008F0A95DA193009779F7B111B1931192D1
:100D4000CB010C94BC08AEE0B0E0E9EAF6E00C940C
:100D5000A6090D891E8986E08C831A8309838FEF8B
:100D60009FE79E838D83AE01475E5F4F6F89788DCD
:100D7000CE0101960E94C506EF81F885E00FF11FB4
:100D800010822E96E4E00C94C209ABE0B0E0EBECEC
:100D9000F6E00C9498096C017B018A01FC01178232
:100DA0001682838181FFCCC1CE0101963C01F60100
:100DB0009381F70193FD859193FF81917F018823B2
:100DC00009F4BAC1853239F493FD859193FF81917D
:100DD0007F01853229F4B60190E00E94CC08E7CF6C
:100DE000912C212C312CFFE1F315D8F08B3279F0C6
:100DF00038F4803279F08332A1F4232D20611DC0B4
:100E00008D3261F0803369F4232D216016C0832D6B
:100E10008260382EE32DE4603E2E2AC0F32DF86068
:100E20001DC037FC2DC020ED280F2A3040F08E3237
:100E3000B9F436FC81C1232D2064322E19C036FE50
:100E400006C08AE0989E200D1124922E11C0EAE07F
:100E50002E9E200D1124222EF32DF0623F2E08C06D
:100E60008C3621F4832D8068382E02C0883641F4F8
:100E7000F70193FD859193FF81917F018111B3CF9C
:100E8000982F9F7D9554933028F40C5F1F4F9FE35C
:100E900099830DC0833631F0833771F0833509F0C3
:100EA00059C021C0F801808189830E5F1F4F8824BB
:100EB0008394912C530113C02801F2E04F0E511C72
:100EC000F801A080B18036FE03C0692D70E002C039
:100ED0006FEF7FEFC5010E94B1084C018201F32D35
:100EE000FF773F2E16C0280122E0420E511CF80168
:100EF000A080B18036FE03C0692D70E002C06FEFA4
:100F00007FEFC5010E94A6084C01F32DF0683F2E2B
:100F1000820133FC1BC0822D90E088169906B0F444
:100F2000B60180E290E00E94CC082A94F4CFF5014B
:100F300037FC859137FE81915F01B60190E00E94F8
:100F4000CC0821102A9421E0821A9108811491047E
:100F500071F7E8C0843611F0893641F5F80137FEA3
:100F600007C060817181828193810C5F1F4F08C02F
:100F700060817181072E000C880B990B0E5F1F4F4B
:100F8000F32DFF763F2E97FF09C0909580957095C1
:100F900061957F4F8F4F9F4FF0683F2E2AE030E0E2
:100FA000A3010E940809882E861845C0853731F4B0
:100FB000232D2F7EB22E2AE030E025C0932D997F7D
:100FC000B92E8F36C1F018F4883579F0B5C0803766
:100FD00019F0883721F0B0C0E92FE061BE2EB4FED1
:100FE0000DC0FB2DF460BF2E09C034FE0AC0292FAE
:100FF0002660B22E06C028E030E005C020E130E0D7
:1010000002C020E132E0F801B7FE07C060817181C3
:10101000828193810C5F1F4F06C06081718180E0E7
:1010200090E00E5F1F4FA3010E940809882E8618CA
:10103000FB2DFF773F2E36FE0DC0232D2E7FA22ED7
:10104000891458F434FE0BC032FC09C0832D8E7E07
:10105000A82E05C0B82CA32C03C0B82C01C0B92CF5
:10106000A4FE0FC0FE01E80DF11D8081803321F444
:101070009A2D997EA92E09C0A2FE06C0B394B394FE
:1010800004C08A2D867809F0B394A3FC11C0A0FE99
:1010900006C0B21488F4280C922C9B180EC0B2140F
:1010A00060F4B60180E290E00E94CC08B394F7CFE0
:1010B000B21418F42B1802C0982C212CA4FE10C0D6
:1010C000B60180E390E00E94CC08A2FE17C0A1FC0C
:1010D00003C088E790E002C088E590E0B6010CC04C
:1010E0008A2D867859F0A1FE02C08BE201C080E211
:1010F000A7FC8DE2B60190E00E94CC08891438F478
:10110000B60180E390E00E94CC089A94F7CF8A94CD
:10111000F301E80DF11D8081B60190E00E94CC083A
:101120008110F5CF222009F442CEB60180E290E092
:101130000E94CC082A94F6CFF6018681978102C0DE
:101140008FEF9FEF2B96E2E10C94B409FC01059020
:10115000615070400110D8F7809590958E0F9F1FB9
:101160000895FC016150704001900110D8F78095FE
:1011700090958E0F9F1F0895DC01FC01672F7191E0
:101180007723E1F7329704C07C916D93708362916D
:10119000AE17BF07C8F308950F931F93CF93DF9344
:1011A000FB01238121FD03C08FEF9FEF2CC022FFA5
:1011B00016C046815781248135814217530744F474
:1011C000A081B1819D012F5F3F4F318320838C939C
:1011D000268137812F5F3F4F3783268314C08B01D1
:1011E000EC01FB010084F185E02D0995892BE1F6E6
:1011F000D80116968D919C911797019617969C93FE
:101200008E931697CE01DF91CF911F910F91089584
:10121000FA01AA27283051F1203181F1E8946F9327
:101220006E7F6E5F7F4F8F4F9F4FAF4FB1E03ED0CD
:10123000B4E03CD0670F781F891F9A1FA11D680F6B
:10124000791F8A1F911DA11D6A0F711D811D911D9E
:10125000A11D20D009F468943F912AE0269F112413
:101260003019305D3193DEF6CF010895462F477077
:10127000405D4193B3E00FD0C9F7F6CF462F4F70D2
:10128000405D4A3318F0495D31FD4052419302D030
:10129000A9F7EACFB4E0A6959795879577956795D6
:1012A000BA95C9F700976105710508959B01AC01D6
:1012B0000A2E06945795479537952795BA95C9F7FD
:1012C000620F731F841F951FA01D0895052E97FBA5
:1012D0001EF400940E947D0957FD07D00E94CF099B
:1012E00007FC03D04EF40C947D0950954095309541
:1012F00021953F4F4F4F5F4F089590958095709582
:1013000061957F4F8F4F9F4F08950E94F109A59FD0
:10131000900DB49F900DA49F800D911D11240895F0
:10132000B7FF0C9485090E948509821B930B0895D1
:101330002F923F924F925F926F927F928F929F92E5
:10134000AF92BF92CF92DF92EF92FF920F931F93D3
:10135000CF93DF93CDB7DEB7CA1BDB0B0FB6F89484
:10136000DEBF0FBECDBF09942A88398848885F84C4
:101370006E847D848C849B84AA84B984C884DF8035
:10138000EE80FD800C811B81AA81B981CE0FD11D19
:101390000FB6F894DEBF0FBECDBFED010895A1E2F8
:1013A0001A2EAA1BBB1BFD010DC0AA1FBB1FEE1FDF
:1013B000FF1FA217B307E407F50720F0A21BB30B2A
:1013C000E40BF50B661F771F881F991F1A9469F7A6
:1013D00060957095809590959B01AC01BD01CF0102
:1013E0000895A29FB001B39FC001A39F700D811DFE
:1013F0001124911DB29F700D811D1124911D08951E
:04140000F894FFCF8E
:1014040001000000256425634300456E7465722065
:101414004D696E696D756E2053706565643A00455B
:101424006E746572204D6178696D756D20537065B9
:1014340065643A0047657420726561647900206BC5
:101444006D6800486967682054656D7065726174E1
:041454007572650048
:00000001FF
