:100000000C9431000C944E000C944E000C944E0055
:100010000C944E000C944E000C944E000C944E0028
:100020000C944E000C944E000C944E000C944E0018
:100030000C944E000C944E000C944E000C944E0008
:100040000C944E000C944E000C944E000C944E00F8
:100050000C944E0060026302660269026C026F0239
:10006000720211241FBECFE5D8E0DEBFCDBF10E085
:10007000A0E6B0E0EAE3F5E102C005900D92A43BF2
:10008000B107D9F720E0A4EBB0E001C01D92A83B76
:10009000B207E1F70E94E4020C949B0A0C94000062
:1000A000FC010FB6F8946091B4007091B500809196
:1000B000B6009091B7000FBE309721F06083718336
:1000C000828393830895CA9B07C081B3806181BBFB
:1000D00082B3806182BB0895CA9B12BA089580E200
:1000E00081BB12BA82BB8FE99FE00197F1F700C094
:1000F000000012BA08951ABA87E886B980E487B971
:1001000008958770806487B986B1806486B9349B0E
:10011000FECF86B1806186B98FE99FE00197F1F744
:1001200000C0000084B195B1089598B39F70282F46
:10013000207F922B98BB98B39E7F98BB98B3926018
:1001400098BB35E03A95F1F7000098B39D7F98BBD6
:10015000EFE1F3E03197F1F700C0000028B3F0E1E0
:100160008F9FC0011124922F9F70892B88BB88B369
:10017000826088BB35E03A95F1F7000088B38D7F47
:1001800088BB8FE39FE10197F1F700C0000008955D
:1001900098B39F70282F207F922B98BB98B39160C3
:1001A00098BB98B3926098BB35E03A95F1F70000A0
:1001B00098B39D7F98BBEFE1F3E03197F1F700C072
:1001C000000028B3F0E18F9FC0011124922F9F708F
:1001D000892B88BB88B3826088BB35E03A95F1F7FC
:1001E000000088B38D7F88BB8FE39FE10197F1F713
:1001F00000C0000008958FEF87BB2FEF89EF90E0DC
:10020000215080409040E1F700C0000082E00E9451
:10021000950088E20E9495008EE00E94950086E09D
:100220000E94950081E00E9495008FE39FE1019775
:10023000F1F700C0000008950F931F93CF93DF9351
:100240008C01C0E0D0E003C00E94C8002196F801F4
:10025000EC0FFD1F80818111F7CFDF91CF911F91AE
:100260000F91089581E00E9495008FE39FE101972F
:10027000F1F700C0000080E80E94950008958EEF1D
:1002800085BB9C990BC02FEF89EF90E021508040F7
:100290009040E1F700C0000087E308959D990BC0EE
:1002A0002FEF89EF90E0215080409040E1F700C0AF
:1002B000000088E308959E990BC02FEF89EF90E02E
:1002C000215080409040E1F700C0000089E308958C
:1002D0008DEF85BB9C990BC02FEF89EF90E02150EB
:1002E00080409040E1F700C0000084E308959D99AC
:1002F0000BC02FEF89EF90E0215080409040E1F754
:1003000000C0000085E308959E990BC02FEF89EF90
:1003100090E0215080409040E1F700C0000086E36B
:1003200008958BEF85BB9C990BC02FEF89EF90E070
:10033000215080409040E1F700C0000081E3089523
:100340009D990BC02FEF89EF90E0215080409040A5
:10035000E1F700C0000082E308959E990BC02FEFE3
:1003600089EF90E0215080409040E1F700C000000C
:1003700083E3089587EF85BB9D990BC02FEF89EF2D
:1003800090E0215080409040E1F700C0000080E301
:100390000895089591B39F6091BB813661F486E022
:1003A00082BB2FEF81EE94E0215080409040E1F736
:1003B00000C000000895823661F483E082BB2FEF15
:1003C00081EE94E0215080409040E1F700C00000B1
:1003D0000895833661F489E082BB2FEF81EE94E0CB
:1003E000215080409040E1F700C0000008958CE06B
:1003F00082BB2FEF81EE94E0215080409040E1F7E6
:1004000000C00000089580E28BBB2FEF81EE94E0E6
:10041000215080409040E1F700C00000089580E442
:100420008BBB2FEF81EE94E0215080409040E1F7AC
:1004300000C00000089580E38BBB2FEF81EE94E0B5
:10044000215080409040E1F700C00000089580EC0A
:100450008BBB2FEF81EE94E0215080409040E1F77C
:1004600000C00000089580E18BBB2FEF81EE94E087
:10047000215080409040E1F700C00000089588E0DE
:100480008BBB2FEF81EE94E0215080409040E1F74C
:1004900000C00000089580E58BBB2FEF81EE94E053
:1004A000215080409040E1F700C00000089501977E
:1004B00087309105C8F4865D9F4FFC010C94A3061C
:1004C0000E94030211C00E940F020EC00E941B0274
:1004D0000BC00E94270208C00E94330205C00E9480
:1004E0003F0202C00E944B0280E090E008958AE63D
:1004F00085BD81B3806881BB08958AE683BF87B3D9
:10050000886087BB089583BD08958CBF0895EF92DE
:10051000FF920F931F93CF93DF93CDB7DEB72A9748
:100520000FB6F894DEBF0FBECDBF0E94FB000E9445
:100530007B000E94320180E00E948100BC01990F83
:10054000880B990B0E94960526EF38E24CE950E49F
:100550000E94220620E030E040E251E40E94EC04D8
:100560000E945E05862F972F8C011F928FED8F932F
:100570007F936F9384E690E09F938F93CE010196D3
:100580007C019F938F930E943E078AE0F7011192AE
:100590008A95E9F70FB6F894DEBF0FBECDBF0A31DA
:1005A00011051CF080E090E002C081E090E02A9606
:1005B0000FB6F894DEBF0FBECDBFDF91CF911F9174
:1005C0000F91FF90EF9008958F929F92AF92BF92FC
:1005D000CF92DF92EF92FF920F931F93CF93DF930F
:1005E00000D000D01F92CDB7DEB780E090E00E942F
:1005F0005000CB010E940E078FE084BB80EF85BBCB
:100600000E94FB008AE690E00E941C0180EC0E94A0
:100610009500EE24E394F12C0AC00E943F01182FAC
:1006200080ED810F8A3018F421E0E21AF1081E14DF
:100630001F049CF3812F0E94C800C12ED12C30E3EF
:10064000C31AD108EE24E394F12C0AC00E943F01A2
:10065000182F80ED810F8A3018F481E0E81AF10834
:100660001E141F049CF3812F0E94C800A12EB12CE0
:10067000750190E3E91AF1085601AA0CBB1CCC0CD9
:10068000DD1CCC0CDD1CCC0CDD1CCA0CDB1C5701AA
:10069000AC0CBD1CCC24C394D12C0AC00E943F01D9
:1006A000182F80ED810F8A3018F421E0C21AD1088A
:1006B0001C141D049CF3812F0E94C800E12EF12C14
:1006C000C701C0977501EE0CFF1CAA0CBB1CAA0C3D
:1006D000BB1CAA0CBB1CAE0CBF1C7C01EA0CFB1C97
:1006E0000E94FB008FE790E00E941C0180EC0E94BA
:1006F0009500CC24C394D12C0AC00E943F01182F2E
:1007000080ED810F8A3018F431E0C31AD1081C142F
:100710001D049CF3812F0E94C800212F30E0490165
:1007200080E3881A9108AA24A394B12C0AC00E94DD
:100730003F01182F80ED810F8A3018F491E0A91A3B
:10074000B1081A141B049CF3812F0E94C800C12E0B
:10075000D12C560120E3A21AB1086401CC0CDD1C97
:100760009401220F331F220F331F220F331FC20E9B
:10077000D31ECA0CDB1CAA24A394B12C0AC00E946D
:100780003F01182F80ED810F8A3018F431E0A31A51
:10079000B1081A141B049CF3812F0E94C800812FFA
:1007A00090E0C0975601AA0CBB1CCC0CDD1CCC0CF5
:1007B000DD1CCC0CDD1CAC0CBD1CA80EB91E8FEFD3
:1007C00090E722E0815090402040E1F700C0000017
:1007D0000E94320184E990E00E941C013FEF80E713
:1007E00092E0315080409040E1F700C000000E944C
:1007F000320100E010E00F2EF1E69F2EF02DD4C064
:100800000E948702019709F0BBC00E9463000E940A
:100810000907B5016E197F096F5F7F4F0E948F0630
:100820008E0DC82ED12C4AE0BE016F5F7F4FC601EE
:100830000E941907CE0101960E941C018EE990E0EA
:100840000E941C012FEF31EE84E0215030408040A7
:10085000E1F700C0000080EF8ABB0E94090767E053
:1008600070E00E948F0601960E9457020E946F005E
:100870009FEF21EE34E0915020403040E1F700C07E
:1008800000000E9477020E947D02C60181559109F5
:10089000879738F488E70E9483028AE00E948502E5
:1008A00014C089E7C81AD10899E0C916D10438F4F0
:1008B0008AE00E94830288E70E94850206C085E0E4
:1008C0000E94830285E00E9485022FEF31EE84E0D2
:1008D000215030408040E1F700C0000088E08ABB32
:1008E0008BBB9FEF21EE34E0915020403040E1F788
:1008F00000C000001BBA8FEF90E722E081509040CB
:100900002040E1F700C0000081B38FEF81BB92B3BC
:1009100082BB31E6931208C0892D0E94CA010F2EB6
:10092000F2E69F2EF02D20C082E6981208C0892D95
:100930000E94CA010F2EF3E69F2EF02D15C093E6FC
:10094000991208C0892D0E94CA010F2EF4E69F2E2D
:10095000F02D0AC024E6921207C0892D0E94CA0118
:100960000F2EF1E69F2EF02D0E9432013FEF81EE17
:1009700094E0315080409040E1F700C0000012C088
:100980000E94FB0083EA90E00E941C0192E09ABB67
:100990009BBB2AEA3AEA8AEA9AE221503040804038
:1009A0009040D9F70F5F1F4F043111050CF428CF89
:1009B00080E090E00F900F900F900F900F90DF91DC
:1009C000CF911F910F91FF90EF90DF90CF90BF904C
:1009D000AF909F908F9008950E9400050C94E805B9
:1009E0000E94E10558F00E94DA0540F029F45F3FCB
:1009F00029F00C94D10551110C941C060C94D705C8
:100A00000E94F90568F39923B1F3552391F3951BDF
:100A1000550BBB27AA2762177307840738F09F5F1F
:100A20005F4F220F331F441FAA1FA9F335D00E2E8C
:100A30003AF0E0E832D091505040E695001CCAF7F9
:100A40002BD0FE2F29D0660F771F881FBB1F2617BC
:100A500037074807AB07B0E809F0BB0B802DBF0193
:100A6000FF2793585F4F3AF09E3F510578F00C9462
:100A7000D1050C941C065F3FE4F3983ED4F38695B1
:100A800077956795B795F7959F5FC9F7880F911D83
:100A90009695879597F90895E1E0660F771F881F6F
:100AA000BB1F621773078407BA0720F0621B730B22
:100AB000840BBA0BEE1F88F7E09508950E94650538
:100AC0006894B1110C941C0608950E94010688F0E8
:100AD0009F5798F0B92F9927B751B0F0E1F0660F02
:100AE000771F881F991F1AF0BA95C9F714C0B13043
:100AF00091F00E941B06B1E008950C941B06672F2D
:100B0000782F8827B85F39F0B93FCCF38695779571
:100B10006795B395D9F73EF490958095709561955A
:100B20007F4F8F4F9F4F0895E89409C097FB3EF485
:100B300090958095709561957F4F8F4F9F4F99232A
:100B4000A9F0F92F96E9BB279395F69587957795A8
:100B50006795B795F111F8CFFAF4BB0F11F460FF68
:100B60001BC06F5F7F4F8F4F9F4F16C0882311F0C0
:100B700096E911C0772321F09EE8872F762F05C0D4
:100B8000662371F096E8862F70E060E02AF09A956F
:100B9000660F771F881FDAF7880F9695879597F964
:100BA000089597F99F6780E870E060E008959FEFEF
:100BB00080EC089500240A941616170618060906F4
:100BC000089500240A9412161306140605060895C3
:100BD000092E0394000C11F4882352F0BB0F40F44B
:100BE000BF2B11F460FF04C06F5F7F4F8F4F9F4F8B
:100BF000089557FD9058440F551F59F05F3F71F00D
:100C00004795880F97FB991F61F09F3F79F0879573
:100C10000895121613061406551FF2CF4695F1DFFC
:100C200008C0161617061806991FF1CF869571058C
:100C3000610508940895E894BB2766277727CB01C0
:100C400097F908950E9435060C94E8050E94DA058C
:100C500038F00E94E10520F0952311F00C94D105A5
:100C60000C94D70511240C941C060E94F90570F30E
:100C7000959FC1F3950F50E0551F629FF001729F41
:100C8000BB27F00DB11D639FAA27F00DB11DAA1F50
:100C9000649F6627B00DA11D661F829F2227B00D9D
:100CA000A11D621F739FB00DA11D621F839FA00D28
:100CB000611D221F749F3327A00D611D231F849F78
:100CC000600D211D822F762F6A2F11249F575040CF
:100CD0009AF0F1F088234AF0EE0FFF1FBB1F661F4A
:100CE000771F881F91505040A9F79E3F510580F013
:100CF0000C94D1050C941C065F3FE4F3983ED4F3AA
:100D0000869577956795B795F795E7959F5FC1F7B6
:100D1000FE2B880F911D9695879597F9089597FB5F
:100D2000072E16F4009407D077FD09D00E94A9067B
:100D300007FC05D03EF4909581959F4F08957095DE
:100D400061957F4F0895EE0FFF1F0590F491E02D00
:100D50000994AA1BBB1B51E107C0AA1FBB1FA61702
:100D6000B70710F0A61BB70B881F991F5A95A9F754
:100D700080959095BC01CD0108958F929F92AF927E
:100D8000BF92CF92DF92EF92FF92CF93DF93EC016D
:100D9000688179818A819B81611571058105910541
:100DA00021F464E279ED8BE597E02DE133EF41E04A
:100DB00050E00E94010A49015A019B01AC01A7EAD7
:100DC000B1E40E94200A6B017C01ACEEB4EFA501F6
:100DD00094010E942E0ADC01CB018C0D9D1DAE1DDD
:100DE000BF1DB7FF03C00197A109B048888399834D
:100DF000AA83BB839F77DF91CF91FF90EF90DF9025
:100E0000CF90BF90AF909F908F9008950E94BD06A5
:100E1000089580E690E00E94BD060895A0E0B0E04D
:100E20008093600090936100A0936200B093630090
:100E30000895BB274A3031F4992322F4BDE29095FE
:100E400081959F4F0C942507BB27FB015527AA27A7
:100E5000880F991FAA1FA41710F0A41B8395505147
:100E6000B9F7A05DAA3308F0A95DA193009779F7BF
:100E7000B111B1931192CB010C945709AEE0B0E0DF
:100E8000E4E4F7E00C94410A0D891E8986E08C8326
:100E90001A8309838FEF9FE79E838D83AE01475EA0
:100EA0005F4F6F89788DCE0101960E946007EF81B8
:100EB000F885E00FF11F10822E96E4E00C945D0A95
:100EC000ABE0B0E0E6E6F7E00C94330A6C017B019E
:100ED0008A01FC0117821682838181FFCCC1CE0179
:100EE00001963C01F6019381F70193FD859193FFF3
:100EF00081917F01882309F4BAC1853239F493FDC9
:100F0000859193FF81917F01853229F4B60190E0AC
:100F10000E946709E7CF912C212C312CFFE1F315BA
:100F2000D8F08B3279F038F4803279F08332A1F442
:100F3000232D20611DC08D3261F0803369F4232D93
:100F4000216016C0832D8260382EE32DE4603E2E92
:100F50002AC0F32DF8601DC037FC2DC020ED280FEE
:100F60002A3040F08E32B9F436FC81C1232D206442
:100F7000322E19C036FE06C08AE0989E200D11243C
:100F8000922E11C0EAE02E9E200D1124222EF32D68
:100F9000F0623F2E08C08C3621F4832D8068382EF5
:100FA00002C0883641F4F70193FD859193FF81914A
:100FB0007F018111B3CF982F9F7D9554933028F4F2
:100FC0000C5F1F4F9FE399830DC0833631F0833749
:100FD00071F0833509F059C021C0F80180818983FF
:100FE0000E5F1F4F88248394912C530113C0280156
:100FF000F2E04F0E511CF801A080B18036FE03C014
:10100000692D70E002C06FEF7FEFC5010E944C09AF
:101010004C018201F32DFF773F2E16C0280122E0FC
:10102000420E511CF801A080B18036FE03C0692D2C
:1010300070E002C06FEF7FEFC5010E9441094C01D3
:10104000F32DF0683F2E820133FC1BC0822D90E00F
:1010500088169906B0F4B60180E290E00E94670914
:101060002A94F4CFF50137FC859137FE81915F0119
:10107000B60190E00E94670921102A9421E0821AAB
:1010800091088114910471F7E8C0843611F0893613
:1010900041F5F80137FE07C060817181828193813B
:1010A0000C5F1F4F08C060817181072E000C880BF8
:1010B000990B0E5F1F4FF32DFF763F2E97FF09C050
:1010C00090958095709561957F4F8F4F9F4FF068F9
:1010D0003F2E2AE030E0A3010E94A309882E861843
:1010E00045C0853731F4232D2F7EB22E2AE030E023
:1010F00025C0932D997FB92E8F36C1F018F488350D
:1011000079F0B5C0803719F0883721F0B0C0E92FE9
:10111000E061BE2EB4FE0DC0FB2DF460BF2E09C0F1
:1011200034FE0AC0292F2660B22E06C028E030E027
:1011300005C020E130E002C020E132E0F801B7FE56
:1011400007C060817181828193810C5F1F4F06C04F
:101150006081718180E090E00E5F1F4FA3010E94CB
:10116000A309882E8618FB2DFF773F2E36FE0DC073
:10117000232D2E7FA22E891458F434FE0BC032FC8E
:1011800009C0832D8E7EA82E05C0B82CA32C03C0C9
:10119000B82C01C0B92CA4FE0FC0FE01E80DF11D52
:1011A0008081803321F49A2D997EA92E09C0A2FE58
:1011B00006C0B394B39404C08A2D867809F0B39422
:1011C000A3FC11C0A0FE06C0B21488F4280C922C17
:1011D0009B180EC0B21460F4B60180E290E00E9449
:1011E0006709B394F7CFB21418F42B1802C0982CE7
:1011F000212CA4FE10C0B60180E390E00E94670994
:10120000A2FE17C0A1FC03C088E790E002C088E5F9
:1012100090E0B6010CC08A2D867859F0A1FE02C07C
:101220008BE201C080E2A7FC8DE2B60190E00E9453
:101230006709891438F4B60180E390E00E946709D9
:101240009A94F7CF8A94F301E80DF11D8081B601DD
:1012500090E00E9467098110F5CF222009F442CE68
:10126000B60180E290E00E9467092A94F6CFF60169
:101270008681978102C08FEF9FEF2B96E2E10C945D
:101280004F0AFC010590615070400110D8F780951D
:1012900090958E0F9F1F0895FC0161507040019042
:1012A0000110D8F7809590958E0F9F1F0895DC014F
:1012B000FC01672F71917723E1F7329704C07C918D
:1012C0006D9370836291AE17BF07C8F308950F93B3
:1012D0001F93CF93DF93FB01238121FD03C08FEF89
:1012E0009FEF2CC022FF16C0468157812481358193
:1012F0004217530744F4A081B1819D012F5F3F4FF6
:10130000318320838C93268137812F5F3F4F378332
:10131000268314C08B01EC01FB010084F185E02DD4
:101320000995892BE1F6D80116968D919C91179716
:10133000019617969C938E931697CE01DF91CF91CD
:101340001F910F910895FA01AA27283051F12031F9
:1013500081F1E8946F936E7F6E5F7F4F8F4F9F4F49
:10136000AF4FB1E03ED0B4E03CD0670F781F891F8B
:101370009A1FA11D680F791F8A1F911DA11D6A0F59
:10138000711D811D911DA11D20D009F468943F910C
:101390002AE0269F11243019305D3193DEF6CF010B
:1013A0000895462F4770405D4193B3E00FD0C9F7D1
:1013B000F6CF462F4F70405D4A3318F0495D31FD3E
:1013C0004052419302D0A9F7EACFB4E0A695979591
:1013D000879577956795BA95C9F700976105710567
:1013E00008959B01AC010A2E0694579547953795B1
:1013F0002795BA95C9F7620F731F841F951FA01D0B
:101400000895052E97FB1EF400940E94180A57FDBC
:1014100007D00E946A0A07FC03D04EF40C94180A05
:1014200050954095309521953F4F4F4F5F4F089510
:1014300090958095709561957F4F8F4F9F4F089540
:101440000E948C0AA59F900DB49F900DA49F800DC3
:10145000911D11240895B7FF0C94200A0E94200AC0
:10146000821B930B08952F923F924F925F926F923F
:101470007F928F929F92AF92BF92CF92DF92EF9224
:10148000FF920F931F93CF93DF93CDB7DEB7CA1BA5
:10149000DB0B0FB6F894DEBF0FBECDBF09942A88D0
:1014A000398848885F846E847D848C849B84AA8478
:1014B000B984C884DF80EE80FD800C811B81AA8105
:1014C000B981CE0FD11D0FB6F894DEBF0FBECDBFD0
:1014D000ED010895A1E21A2EAA1BBB1BFD010DC050
:1014E000AA1FBB1FEE1FFF1FA217B307E407F507D4
:1014F00020F0A21BB30BE40BF50B661F771F881FB0
:10150000991F1A9469F760957095809590959B0145
:10151000AC01BD01CF010895A29FB001B39FC001EE
:10152000A39F700D811D1124911DB29F700D811D0F
:0A1530001124911D0895F894FFCFD7
:10153A0001000000256425634300456E746572202E
:10154A004D696E696D756E2053706565643A004524
:10155A006E746572204D6178696D756D2053706582
:10156A0065643A0047657420726561647900206B8E
:10157A006D6800486967682054656D7065726174AA
:04158A007572650011
:00000001FF
